{
    "_format": "hh-sol-artifact-1",
    "contractName": "MyEpicNFT",
    "sourceName": "contracts/MyEpicNFT.sol",
    "abi": [
        {
            "inputs": [],
            "stateMutability": "nonpayable",
            "type": "constructor"
        },
        {
            "anonymous": false,
            "inputs": [
                {
                    "indexed": true,
                    "internalType": "address",
                    "name": "owner",
                    "type": "address"
                },
                {
                    "indexed": true,
                    "internalType": "address",
                    "name": "approved",
                    "type": "address"
                },
                {
                    "indexed": true,
                    "internalType": "uint256",
                    "name": "tokenId",
                    "type": "uint256"
                }
            ],
            "name": "Approval",
            "type": "event"
        },
        {
            "anonymous": false,
            "inputs": [
                {
                    "indexed": true,
                    "internalType": "address",
                    "name": "owner",
                    "type": "address"
                },
                {
                    "indexed": true,
                    "internalType": "address",
                    "name": "operator",
                    "type": "address"
                },
                {
                    "indexed": false,
                    "internalType": "bool",
                    "name": "approved",
                    "type": "bool"
                }
            ],
            "name": "ApprovalForAll",
            "type": "event"
        },
        {
            "anonymous": false,
            "inputs": [
                {
                    "indexed": true,
                    "internalType": "address",
                    "name": "from",
                    "type": "address"
                },
                {
                    "indexed": true,
                    "internalType": "address",
                    "name": "to",
                    "type": "address"
                },
                {
                    "indexed": true,
                    "internalType": "uint256",
                    "name": "tokenId",
                    "type": "uint256"
                }
            ],
            "name": "Transfer",
            "type": "event"
        },
        {
            "inputs": [
                {
                    "internalType": "address",
                    "name": "to",
                    "type": "address"
                },
                {
                    "internalType": "uint256",
                    "name": "tokenId",
                    "type": "uint256"
                }
            ],
            "name": "approve",
            "outputs": [],
            "stateMutability": "nonpayable",
            "type": "function"
        },
        {
            "inputs": [
                {
                    "internalType": "address",
                    "name": "owner",
                    "type": "address"
                }
            ],
            "name": "balanceOf",
            "outputs": [
                {
                    "internalType": "uint256",
                    "name": "",
                    "type": "uint256"
                }
            ],
            "stateMutability": "view",
            "type": "function"
        },
        {
            "inputs": [
                {
                    "internalType": "uint256",
                    "name": "tokenId",
                    "type": "uint256"
                }
            ],
            "name": "getApproved",
            "outputs": [
                {
                    "internalType": "address",
                    "name": "",
                    "type": "address"
                }
            ],
            "stateMutability": "view",
            "type": "function"
        },
        {
            "inputs": [
                {
                    "internalType": "address",
                    "name": "owner",
                    "type": "address"
                },
                {
                    "internalType": "address",
                    "name": "operator",
                    "type": "address"
                }
            ],
            "name": "isApprovedForAll",
            "outputs": [
                {
                    "internalType": "bool",
                    "name": "",
                    "type": "bool"
                }
            ],
            "stateMutability": "view",
            "type": "function"
        },
        {
            "inputs": [],
            "name": "makeAnEpicNFT",
            "outputs": [],
            "stateMutability": "nonpayable",
            "type": "function"
        },
        {
            "inputs": [],
            "name": "name",
            "outputs": [
                {
                    "internalType": "string",
                    "name": "",
                    "type": "string"
                }
            ],
            "stateMutability": "view",
            "type": "function"
        },
        {
            "inputs": [
                {
                    "internalType": "uint256",
                    "name": "tokenId",
                    "type": "uint256"
                }
            ],
            "name": "ownerOf",
            "outputs": [
                {
                    "internalType": "address",
                    "name": "",
                    "type": "address"
                }
            ],
            "stateMutability": "view",
            "type": "function"
        },
        {
            "inputs": [
                {
                    "internalType": "uint256",
                    "name": "tokenId",
                    "type": "uint256"
                }
            ],
            "name": "pickRandomFirstWord",
            "outputs": [
                {
                    "internalType": "string",
                    "name": "",
                    "type": "string"
                }
            ],
            "stateMutability": "view",
            "type": "function"
        },
        {
            "inputs": [
                {
                    "internalType": "address",
                    "name": "from",
                    "type": "address"
                },
                {
                    "internalType": "address",
                    "name": "to",
                    "type": "address"
                },
                {
                    "internalType": "uint256",
                    "name": "tokenId",
                    "type": "uint256"
                }
            ],
            "name": "safeTransferFrom",
            "outputs": [],
            "stateMutability": "nonpayable",
            "type": "function"
        },
        {
            "inputs": [
                {
                    "internalType": "address",
                    "name": "from",
                    "type": "address"
                },
                {
                    "internalType": "address",
                    "name": "to",
                    "type": "address"
                },
                {
                    "internalType": "uint256",
                    "name": "tokenId",
                    "type": "uint256"
                },
                {
                    "internalType": "bytes",
                    "name": "_data",
                    "type": "bytes"
                }
            ],
            "name": "safeTransferFrom",
            "outputs": [],
            "stateMutability": "nonpayable",
            "type": "function"
        },
        {
            "inputs": [
                {
                    "internalType": "address",
                    "name": "operator",
                    "type": "address"
                },
                {
                    "internalType": "bool",
                    "name": "approved",
                    "type": "bool"
                }
            ],
            "name": "setApprovalForAll",
            "outputs": [],
            "stateMutability": "nonpayable",
            "type": "function"
        },
        {
            "inputs": [
                {
                    "internalType": "bytes4",
                    "name": "interfaceId",
                    "type": "bytes4"
                }
            ],
            "name": "supportsInterface",
            "outputs": [
                {
                    "internalType": "bool",
                    "name": "",
                    "type": "bool"
                }
            ],
            "stateMutability": "view",
            "type": "function"
        },
        {
            "inputs": [],
            "name": "symbol",
            "outputs": [
                {
                    "internalType": "string",
                    "name": "",
                    "type": "string"
                }
            ],
            "stateMutability": "view",
            "type": "function"
        },
        {
            "inputs": [
                {
                    "internalType": "uint256",
                    "name": "tokenId",
                    "type": "uint256"
                }
            ],
            "name": "tokenURI",
            "outputs": [
                {
                    "internalType": "string",
                    "name": "",
                    "type": "string"
                }
            ],
            "stateMutability": "view",
            "type": "function"
        },
        {
            "inputs": [
                {
                    "internalType": "address",
                    "name": "from",
                    "type": "address"
                },
                {
                    "internalType": "address",
                    "name": "to",
                    "type": "address"
                },
                {
                    "internalType": "uint256",
                    "name": "tokenId",
                    "type": "uint256"
                }
            ],
            "name": "transferFrom",
            "outputs": [],
            "stateMutability": "nonpayable",
            "type": "function"
        }
    ],
    "bytecode": "0x608060405260405180610160016040528061012f815260200162003cef61012f9139600890805190602001906200003892919062000382565b506040518060c001604052806040518060400160405280600381526020017f455448000000000000000000000000000000000000000000000000000000000081525081526020016040518060400160405280600381526020017f425443000000000000000000000000000000000000000000000000000000000081525081526020016040518060400160405280600381526020017f534f4c000000000000000000000000000000000000000000000000000000000081525081526020016040518060400160405280600581526020017f444f44474500000000000000000000000000000000000000000000000000000081525081526020016040518060400160405280600381526020017f424e42000000000000000000000000000000000000000000000000000000000081525081526020016040518060400160405280600381526020017f554e4900000000000000000000000000000000000000000000000000000000008152508152506009906006620001b692919062000413565b50348015620001c457600080fd5b506040518060400160405280600e81526020017f536169645265686f756e694e46540000000000000000000000000000000000008152506040518060400160405280600381526020017f535245000000000000000000000000000000000000000000000000000000000081525081600090805190602001906200024992919062000382565b5080600190805190602001906200026292919062000382565b505050620002b06040518060400160405280601e81526020017f54686973206973206d79204e465420636f6e74726163742e20576f6168210000815250620002b660201b62000e371760201c565b62000634565b6200035681604051602401620002cd919062000548565b6040516020818303038152906040527f41304fac000000000000000000000000000000000000000000000000000000007bffffffffffffffffffffffffffffffffffffffffffffffffffffffff19166020820180517bffffffffffffffffffffffffffffffffffffffffffffffffffffffff83818316178352505050506200035960201b60201c565b50565b60008151905060006a636f6e736f6c652e6c6f679050602083016000808483855afa5050505050565b8280546200039090620005be565b90600052602060002090601f016020900481019282620003b4576000855562000400565b82601f10620003cf57805160ff191683800117855562000400565b8280016001018555821562000400579182015b82811115620003ff578251825591602001919060010190620003e2565b5b5090506200040f91906200047a565b5090565b82805482825590600052602060002090810192821562000467579160200282015b82811115620004665782518290805190602001906200045592919062000382565b509160200191906001019062000434565b5b50905062000476919062000499565b5090565b5b80821115620004955760008160009055506001016200047b565b5090565b5b80821115620004bd5760008181620004b39190620004c1565b506001016200049a565b5090565b508054620004cf90620005be565b6000825580601f10620004e3575062000504565b601f0160209004906000526020600020908101906200050391906200047a565b5b50565b600062000514826200056c565b62000520818562000577565b93506200053281856020860162000588565b6200053d8162000623565b840191505092915050565b6000602082019050818103600083015262000564818462000507565b905092915050565b600081519050919050565b600082825260208201905092915050565b60005b83811015620005a85780820151818401526020810190506200058b565b83811115620005b8576000848401525b50505050565b60006002820490506001821680620005d757607f821691505b60208210811415620005ee57620005ed620005f4565b5b50919050565b7f4e487b7100000000000000000000000000000000000000000000000000000000600052602260045260246000fd5b6000601f19601f8301169050919050565b6136ab80620006446000396000f3fe608060405234801561001057600080fd5b50600436106100f55760003560e01c80636352211e11610097578063b88d4fde11610066578063b88d4fde14610296578063c87b56dd146102b2578063de9d132f146102e2578063e985e9c5146102ec576100f5565b80636352211e146101fc57806370a082311461022c57806395d89b411461025c578063a22cb4651461027a576100f5565b8063095ea7b3116100d3578063095ea7b31461017857806323b872dd146101945780632de38d68146101b057806342842e0e146101e0576100f5565b806301ffc9a7146100fa57806306fdde031461012a578063081812fc14610148575b600080fd5b610114600480360381019061010f91906122c9565b61031c565b60405161012191906128ef565b60405180910390f35b6101326103fe565b60405161013f919061290a565b60405180910390f35b610162600480360381019061015d919061231b565b610490565b60405161016f9190612888565b60405180910390f35b610192600480360381019061018d919061228d565b610515565b005b6101ae60048036038101906101a99190612187565b61062d565b005b6101ca60048036038101906101c5919061231b565b61068d565b6040516101d7919061290a565b60405180910390f35b6101fa60048036038101906101f59190612187565b6107a7565b005b6102166004803603810190610211919061231b565b6107c7565b6040516102239190612888565b60405180910390f35b61024660048036038101906102419190612122565b610879565b6040516102539190612b6a565b60405180910390f35b610264610931565b604051610271919061290a565b60405180910390f35b610294600480360381019061028f9190612251565b6109c3565b005b6102b060048036038101906102ab91906121d6565b6109d9565b005b6102cc60048036038101906102c7919061231b565b610a3b565b6040516102d9919061290a565b60405180910390f35b6102ea610b8d565b005b6103066004803603810190610301919061214b565b610da3565b60405161031391906128ef565b60405180910390f35b60007f80ac58cd000000000000000000000000000000000000000000000000000000007bffffffffffffffffffffffffffffffffffffffffffffffffffffffff1916827bffffffffffffffffffffffffffffffffffffffffffffffffffffffff191614806103e757507f5b5e139f000000000000000000000000000000000000000000000000000000007bffffffffffffffffffffffffffffffffffffffffffffffffffffffff1916827bffffffffffffffffffffffffffffffffffffffffffffffffffffffff1916145b806103f757506103f682610ed0565b5b9050919050565b60606000805461040d90612dfe565b80601f016020809104026020016040519081016040528092919081815260200182805461043990612dfe565b80156104865780601f1061045b57610100808354040283529160200191610486565b820191906000526020600020905b81548152906001019060200180831161046957829003601f168201915b5050505050905090565b600061049b82610f3a565b6104da576040517f08c379a00000000000000000000000000000000000000000000000000000000081526004016104d190612aca565b60405180910390fd5b6004600083815260200190815260200160002060009054906101000a900473ffffffffffffffffffffffffffffffffffffffff169050919050565b6000610520826107c7565b90508073ffffffffffffffffffffffffffffffffffffffff168373ffffffffffffffffffffffffffffffffffffffff161415610591576040517f08c379a000000000000000000000000000000000000000000000000000000000815260040161058890612b2a565b60405180910390fd5b8073ffffffffffffffffffffffffffffffffffffffff166105b0610fa6565b73ffffffffffffffffffffffffffffffffffffffff1614806105df57506105de816105d9610fa6565b610da3565b5b61061e576040517f08c379a000000000000000000000000000000000000000000000000000000000815260040161061590612a0a565b60405180910390fd5b6106288383610fae565b505050565b61063e610638610fa6565b82611067565b61067d576040517f08c379a000000000000000000000000000000000000000000000000000000000815260040161067490612b4a565b60405180910390fd5b610688838383611145565b505050565b60606107a0826040518060400160405280600a81526020017f46495253545f574f5244000000000000000000000000000000000000000000008152506009805480602002602001604051908101604052809291908181526020016000905b8282101561079757838290600052602060002001805461070a90612dfe565b80601f016020809104026020016040519081016040528092919081815260200182805461073690612dfe565b80156107835780601f1061075857610100808354040283529160200191610783565b820191906000526020600020905b81548152906001019060200180831161076657829003601f168201915b5050505050815260200190600101906106eb565b505050506113a1565b9050919050565b6107c2838383604051806020016040528060008152506109d9565b505050565b6000806002600084815260200190815260200160002060009054906101000a900473ffffffffffffffffffffffffffffffffffffffff169050600073ffffffffffffffffffffffffffffffffffffffff168173ffffffffffffffffffffffffffffffffffffffff161415610870576040517f08c379a000000000000000000000000000000000000000000000000000000000815260040161086790612a4a565b60405180910390fd5b80915050919050565b60008073ffffffffffffffffffffffffffffffffffffffff168273ffffffffffffffffffffffffffffffffffffffff1614156108ea576040517f08c379a00000000000000000000000000000000000000000000000000000000081526004016108e190612a2a565b60405180910390fd5b600360008373ffffffffffffffffffffffffffffffffffffffff1673ffffffffffffffffffffffffffffffffffffffff168152602001908152602001600020549050919050565b60606001805461094090612dfe565b80601f016020809104026020016040519081016040528092919081815260200182805461096c90612dfe565b80156109b95780601f1061098e576101008083540402835291602001916109b9565b820191906000526020600020905b81548152906001019060200180831161099c57829003601f168201915b5050505050905090565b6109d56109ce610fa6565b8383611433565b5050565b6109ea6109e4610fa6565b83611067565b610a29576040517f08c379a0000000000000000000000000000000000000000000000000000000008152600401610a2090612b4a565b60405180910390fd5b610a35848484846115a0565b50505050565b6060610a4682610f3a565b610a85576040517f08c379a0000000000000000000000000000000000000000000000000000000008152600401610a7c90612aaa565b60405180910390fd5b6000600660008481526020019081526020016000208054610aa590612dfe565b80601f0160208091040260200160405190810160405280929190818152602001828054610ad190612dfe565b8015610b1e5780601f10610af357610100808354040283529160200191610b1e565b820191906000526020600020905b815481529060010190602001808311610b0157829003601f168201915b505050505090506000610b2f6115fc565b9050600081511415610b45578192505050610b88565b600082511115610b7a578082604051602001610b629291906127ac565b60405160208183030381529060405292505050610b88565b610b8384611613565b925050505b919050565b6000610b9960076116ba565b90506000610ba68261068d565b90506000600882604051602001610bbe9291906127d0565b6040516020818303038152906040529050610bd881610e37565b6000610c0c83610be7846116c8565b604051602001610bf8929190612821565b6040516020818303038152906040526116c8565b9050600081604051602001610c219190612866565b6040516020818303038152906040529050610c706040518060400160405280601581526020017f0a2d2d2d2d2d2d2d2d2d2d2d2d2d2d2d2d2d2d2d2d0000000000000000000000815250610e37565b610c7981610e37565b610cb76040518060400160405280601581526020017f2d2d2d2d2d2d2d2d2d2d2d2d2d2d2d2d2d2d2d2d0a0000000000000000000000815250610e37565b610cf56040518060400160405280601581526020017f0a2d2d2d2d2d2d2d2d2d2d2d2d2d2d2d2d2d2d2d2d0000000000000000000000815250610e37565b610d1d81604051602001610d0991906127ff565b604051602081830303815290604052610e37565b610d5b6040518060400160405280601581526020017f2d2d2d2d2d2d2d2d2d2d2d2d2d2d2d2d2d2d2d2d0a0000000000000000000000815250610e37565b610d653386611886565b610d6f85826118a4565b610d796007611918565b610d9c60405180606001604052806025815260200161361160259139863361192e565b5050505050565b6000600560008473ffffffffffffffffffffffffffffffffffffffff1673ffffffffffffffffffffffffffffffffffffffff16815260200190815260200160002060008373ffffffffffffffffffffffffffffffffffffffff1673ffffffffffffffffffffffffffffffffffffffff16815260200190815260200160002060009054906101000a900460ff16905092915050565b610ecd81604051602401610e4b919061290a565b6040516020818303038152906040527f41304fac000000000000000000000000000000000000000000000000000000007bffffffffffffffffffffffffffffffffffffffffffffffffffffffff19166020820180517bffffffffffffffffffffffffffffffffffffffffffffffffffffffff83818316178352505050506119cd565b50565b60007f01ffc9a7000000000000000000000000000000000000000000000000000000007bffffffffffffffffffffffffffffffffffffffffffffffffffffffff1916827bffffffffffffffffffffffffffffffffffffffffffffffffffffffff1916149050919050565b60008073ffffffffffffffffffffffffffffffffffffffff166002600084815260200190815260200160002060009054906101000a900473ffffffffffffffffffffffffffffffffffffffff1673ffffffffffffffffffffffffffffffffffffffff1614159050919050565b600033905090565b816004600083815260200190815260200160002060006101000a81548173ffffffffffffffffffffffffffffffffffffffff021916908373ffffffffffffffffffffffffffffffffffffffff160217905550808273ffffffffffffffffffffffffffffffffffffffff16611021836107c7565b73ffffffffffffffffffffffffffffffffffffffff167f8c5be1e5ebec7d5bd14f71427d1e84f3dd0314c0f7b2291e5b200ac8c7c3b92560405160405180910390a45050565b600061107282610f3a565b6110b1576040517f08c379a00000000000000000000000000000000000000000000000000000000081526004016110a8906129ea565b60405180910390fd5b60006110bc836107c7565b90508073ffffffffffffffffffffffffffffffffffffffff168473ffffffffffffffffffffffffffffffffffffffff16148061112b57508373ffffffffffffffffffffffffffffffffffffffff1661111384610490565b73ffffffffffffffffffffffffffffffffffffffff16145b8061113c575061113b8185610da3565b5b91505092915050565b8273ffffffffffffffffffffffffffffffffffffffff16611165826107c7565b73ffffffffffffffffffffffffffffffffffffffff16146111bb576040517f08c379a00000000000000000000000000000000000000000000000000000000081526004016111b290612aea565b60405180910390fd5b600073ffffffffffffffffffffffffffffffffffffffff168273ffffffffffffffffffffffffffffffffffffffff16141561122b576040517f08c379a0000000000000000000000000000000000000000000000000000000008152600401611222906129aa565b60405180910390fd5b6112368383836119f6565b611241600082610fae565b6001600360008573ffffffffffffffffffffffffffffffffffffffff1673ffffffffffffffffffffffffffffffffffffffff16815260200190815260200160002060008282546112919190612d14565b925050819055506001600360008473ffffffffffffffffffffffffffffffffffffffff1673ffffffffffffffffffffffffffffffffffffffff16815260200190815260200160002060008282546112e89190612c33565b92505081905550816002600083815260200190815260200160002060006101000a81548173ffffffffffffffffffffffffffffffffffffffff021916908373ffffffffffffffffffffffffffffffffffffffff160217905550808273ffffffffffffffffffffffffffffffffffffffff168473ffffffffffffffffffffffffffffffffffffffff167fddf252ad1be2c89b69c2b068fc378daa952ba7f163c4a11628f55a4df523b3ef60405160405180910390a4505050565b606060006113d7846113b2876119fb565b6040516020016113c39291906127ac565b604051602081830303815290604052611ba8565b90508251816113e69190612eaa565b9050828181518110611421577f4e487b7100000000000000000000000000000000000000000000000000000000600052603260045260246000fd5b60200260200101519150509392505050565b8173ffffffffffffffffffffffffffffffffffffffff168373ffffffffffffffffffffffffffffffffffffffff1614156114a2576040517f08c379a0000000000000000000000000000000000000000000000000000000008152600401611499906129ca565b60405180910390fd5b80600560008573ffffffffffffffffffffffffffffffffffffffff1673ffffffffffffffffffffffffffffffffffffffff16815260200190815260200160002060008473ffffffffffffffffffffffffffffffffffffffff1673ffffffffffffffffffffffffffffffffffffffff16815260200190815260200160002060006101000a81548160ff0219169083151502179055508173ffffffffffffffffffffffffffffffffffffffff168373ffffffffffffffffffffffffffffffffffffffff167f17307eab39ab6107e8899845ad3d59bd9653f200f220920489ca2b5937696c318360405161159391906128ef565b60405180910390a3505050565b6115ab848484611145565b6115b784848484611bdb565b6115f6576040517f08c379a00000000000000000000000000000000000000000000000000000000081526004016115ed9061296a565b60405180910390fd5b50505050565b606060405180602001604052806000815250905090565b606061161e82610f3a565b61165d576040517f08c379a000000000000000000000000000000000000000000000000000000000815260040161165490612b0a565b60405180910390fd5b60006116676115fc565b9050600081511161168757604051806020016040528060008152506116b2565b80611691846119fb565b6040516020016116a29291906127ac565b6040516020818303038152906040525b915050919050565b600081600001549050919050565b606060008251905060008114156116f15760405180602001604052806000815250915050611881565b600060036002836117029190612c33565b61170c9190612c89565b60046117189190612cba565b905060006020826117299190612c33565b67ffffffffffffffff811115611768577f4e487b7100000000000000000000000000000000000000000000000000000000600052604160045260246000fd5b6040519080825280601f01601f19166020018201604052801561179a5781602001600182028036833780820191505090505b5090506000604051806060016040528060408152602001613636604091399050600181016020830160005b8681101561183e5760038101905062ffffff818a015116603f8160121c168401518060081b905060ff603f83600c1c1686015116810190508060081b905060ff603f8360061c1686015116810190508060081b905060ff603f831686015116810190508060e01b905080845260048401935050506117c5565b506003860660018114611858576002811461186857611873565b613d3d60f01b6002830352611873565b603d60f81b60018303525b508484525050819450505050505b919050565b6118a0828260405180602001604052806000815250611d72565b5050565b6118ad82610f3a565b6118ec576040517f08c379a00000000000000000000000000000000000000000000000000000000081526004016118e390612a6a565b60405180910390fd5b80600660008481526020019081526020016000209080519060200190611913929190611fae565b505050565b6001816000016000828254019250508190555050565b6119c88383836040516024016119469392919061292c565b6040516020818303038152906040527fe3849f79000000000000000000000000000000000000000000000000000000007bffffffffffffffffffffffffffffffffffffffffffffffffffffffff19166020820180517bffffffffffffffffffffffffffffffffffffffffffffffffffffffff83818316178352505050506119cd565b505050565b60008151905060006a636f6e736f6c652e6c6f679050602083016000808483855afa5050505050565b505050565b60606000821415611a43576040518060400160405280600181526020017f30000000000000000000000000000000000000000000000000000000000000008152509050611ba3565b600082905060005b60008214611a75578080611a5e90612e61565b915050600a82611a6e9190612c89565b9150611a4b565b60008167ffffffffffffffff811115611ab7577f4e487b7100000000000000000000000000000000000000000000000000000000600052604160045260246000fd5b6040519080825280601f01601f191660200182016040528015611ae95781602001600182028036833780820191505090505b5090505b60008514611b9c57600182611b029190612d14565b9150600a85611b119190612eaa565b6030611b1d9190612c33565b60f81b818381518110611b59577f4e487b7100000000000000000000000000000000000000000000000000000000600052603260045260246000fd5b60200101907effffffffffffffffffffffffffffffffffffffffffffffffffffffffffffff1916908160001a905350600a85611b959190612c89565b9450611aed565b8093505050505b919050565b600081604051602001611bbb9190612795565b6040516020818303038152906040528051906020012060001c9050919050565b6000611bfc8473ffffffffffffffffffffffffffffffffffffffff16611dcd565b15611d65578373ffffffffffffffffffffffffffffffffffffffff1663150b7a02611c25610fa6565b8786866040518563ffffffff1660e01b8152600401611c4794939291906128a3565b602060405180830381600087803b158015611c6157600080fd5b505af1925050508015611c9257506040513d601f19601f82011682018060405250810190611c8f91906122f2565b60015b611d15573d8060008114611cc2576040519150601f19603f3d011682016040523d82523d6000602084013e611cc7565b606091505b50600081511415611d0d576040517f08c379a0000000000000000000000000000000000000000000000000000000008152600401611d049061296a565b60405180910390fd5b805181602001fd5b63150b7a0260e01b7bffffffffffffffffffffffffffffffffffffffffffffffffffffffff1916817bffffffffffffffffffffffffffffffffffffffffffffffffffffffff191614915050611d6a565b600190505b949350505050565b611d7c8383611de0565b611d896000848484611bdb565b611dc8576040517f08c379a0000000000000000000000000000000000000000000000000000000008152600401611dbf9061296a565b60405180910390fd5b505050565b600080823b905060008111915050919050565b600073ffffffffffffffffffffffffffffffffffffffff168273ffffffffffffffffffffffffffffffffffffffff161415611e50576040517f08c379a0000000000000000000000000000000000000000000000000000000008152600401611e4790612a8a565b60405180910390fd5b611e5981610f3a565b15611e99576040517f08c379a0000000000000000000000000000000000000000000000000000000008152600401611e909061298a565b60405180910390fd5b611ea5600083836119f6565b6001600360008473ffffffffffffffffffffffffffffffffffffffff1673ffffffffffffffffffffffffffffffffffffffff1681526020019081526020016000206000828254611ef59190612c33565b92505081905550816002600083815260200190815260200160002060006101000a81548173ffffffffffffffffffffffffffffffffffffffff021916908373ffffffffffffffffffffffffffffffffffffffff160217905550808273ffffffffffffffffffffffffffffffffffffffff16600073ffffffffffffffffffffffffffffffffffffffff167fddf252ad1be2c89b69c2b068fc378daa952ba7f163c4a11628f55a4df523b3ef60405160405180910390a45050565b828054611fba90612dfe565b90600052602060002090601f016020900481019282611fdc5760008555612023565b82601f10611ff557805160ff1916838001178555612023565b82800160010185558215612023579182015b82811115612022578251825591602001919060010190612007565b5b5090506120309190612034565b5090565b5b8082111561204d576000816000905550600101612035565b5090565b600061206461205f84612baa565b612b85565b90508281526020810184848401111561207c57600080fd5b612087848285612dbc565b509392505050565b60008135905061209e816135b4565b92915050565b6000813590506120b3816135cb565b92915050565b6000813590506120c8816135e2565b92915050565b6000815190506120dd816135e2565b92915050565b600082601f8301126120f457600080fd5b8135612104848260208601612051565b91505092915050565b60008135905061211c816135f9565b92915050565b60006020828403121561213457600080fd5b60006121428482850161208f565b91505092915050565b6000806040838503121561215e57600080fd5b600061216c8582860161208f565b925050602061217d8582860161208f565b9150509250929050565b60008060006060848603121561219c57600080fd5b60006121aa8682870161208f565b93505060206121bb8682870161208f565b92505060406121cc8682870161210d565b9150509250925092565b600080600080608085870312156121ec57600080fd5b60006121fa8782880161208f565b945050602061220b8782880161208f565b935050604061221c8782880161210d565b925050606085013567ffffffffffffffff81111561223957600080fd5b612245878288016120e3565b91505092959194509250565b6000806040838503121561226457600080fd5b60006122728582860161208f565b9250506020612283858286016120a4565b9150509250929050565b600080604083850312156122a057600080fd5b60006122ae8582860161208f565b92505060206122bf8582860161210d565b9150509250929050565b6000602082840312156122db57600080fd5b60006122e9848285016120b9565b91505092915050565b60006020828403121561230457600080fd5b6000612312848285016120ce565b91505092915050565b60006020828403121561232d57600080fd5b600061233b8482850161210d565b91505092915050565b61234d81612d48565b82525050565b61235c81612d5a565b82525050565b600061236d82612bf0565b6123778185612c06565b9350612387818560208601612dcb565b61239081612f97565b840191505092915050565b60006123a682612bfb565b6123b08185612c17565b93506123c0818560208601612dcb565b6123c981612f97565b840191505092915050565b60006123df82612bfb565b6123e98185612c28565b93506123f9818560208601612dcb565b80840191505092915050565b6000815461241281612dfe565b61241c8186612c28565b9450600182166000811461243757600181146124485761247b565b60ff1983168652818601935061247b565b61245185612bdb565b60005b8381101561247357815481890152600182019150602081019050612454565b838801955050505b50505092915050565b6000612491602583612c28565b915061249c82612fa8565b602582019050919050565b60006124b4603283612c17565b91506124bf82612ff7565b604082019050919050565b60006124d7601c83612c17565b91506124e282613046565b602082019050919050565b60006124fa602483612c17565b91506125058261306f565b604082019050919050565b600061251d601983612c17565b9150612528826130be565b602082019050919050565b6000612540606383612c28565b915061254b826130e7565b606382019050919050565b6000612563602c83612c17565b915061256e82613182565b604082019050919050565b6000612586600d83612c28565b9150612591826131d1565b600d82019050919050565b60006125a9603883612c17565b91506125b4826131fa565b604082019050919050565b60006125cc602a83612c17565b91506125d782613249565b604082019050919050565b60006125ef602983612c17565b91506125fa82613298565b604082019050919050565b6000612612602e83612c17565b915061261d826132e7565b604082019050919050565b6000612635600283612c28565b915061264082613336565b600282019050919050565b6000612658602083612c17565b91506126638261335f565b602082019050919050565b600061267b603183612c17565b915061268682613388565b604082019050919050565b600061269e602c83612c17565b91506126a9826133d7565b604082019050919050565b60006126c1602983612c17565b91506126cc82613426565b604082019050919050565b60006126e4602f83612c17565b91506126ef82613475565b604082019050919050565b6000612707600a83612c28565b9150612712826134c4565b600a82019050919050565b600061272a602183612c17565b9150612735826134ed565b604082019050919050565b600061274d601d83612c28565b91506127588261353c565b601d82019050919050565b6000612770603183612c17565b915061277b82613565565b604082019050919050565b61278f81612db2565b82525050565b60006127a182846123d4565b915081905092915050565b60006127b882856123d4565b91506127c482846123d4565b91508190509392505050565b60006127dc8285612405565b91506127e882846123d4565b91506127f382612579565b91508190509392505050565b600061280a82612484565b915061281682846123d4565b915081905092915050565b600061282c826126fa565b915061283882856123d4565b915061284382612533565b915061284f82846123d4565b915061285a82612628565b91508190509392505050565b600061287182612740565b915061287d82846123d4565b915081905092915050565b600060208201905061289d6000830184612344565b92915050565b60006080820190506128b86000830187612344565b6128c56020830186612344565b6128d26040830185612786565b81810360608301526128e48184612362565b905095945050505050565b60006020820190506129046000830184612353565b92915050565b60006020820190508181036000830152612924818461239b565b905092915050565b60006060820190508181036000830152612946818661239b565b90506129556020830185612786565b6129626040830184612344565b949350505050565b60006020820190508181036000830152612983816124a7565b9050919050565b600060208201905081810360008301526129a3816124ca565b9050919050565b600060208201905081810360008301526129c3816124ed565b9050919050565b600060208201905081810360008301526129e381612510565b9050919050565b60006020820190508181036000830152612a0381612556565b9050919050565b60006020820190508181036000830152612a238161259c565b9050919050565b60006020820190508181036000830152612a43816125bf565b9050919050565b60006020820190508181036000830152612a63816125e2565b9050919050565b60006020820190508181036000830152612a8381612605565b9050919050565b60006020820190508181036000830152612aa38161264b565b9050919050565b60006020820190508181036000830152612ac38161266e565b9050919050565b60006020820190508181036000830152612ae381612691565b9050919050565b60006020820190508181036000830152612b03816126b4565b9050919050565b60006020820190508181036000830152612b23816126d7565b9050919050565b60006020820190508181036000830152612b438161271d565b9050919050565b60006020820190508181036000830152612b6381612763565b9050919050565b6000602082019050612b7f6000830184612786565b92915050565b6000612b8f612ba0565b9050612b9b8282612e30565b919050565b6000604051905090565b600067ffffffffffffffff821115612bc557612bc4612f68565b5b612bce82612f97565b9050602081019050919050565b60008190508160005260206000209050919050565b600081519050919050565b600081519050919050565b600082825260208201905092915050565b600082825260208201905092915050565b600081905092915050565b6000612c3e82612db2565b9150612c4983612db2565b9250827fffffffffffffffffffffffffffffffffffffffffffffffffffffffffffffffff03821115612c7e57612c7d612edb565b5b828201905092915050565b6000612c9482612db2565b9150612c9f83612db2565b925082612caf57612cae612f0a565b5b828204905092915050565b6000612cc582612db2565b9150612cd083612db2565b9250817fffffffffffffffffffffffffffffffffffffffffffffffffffffffffffffffff0483118215151615612d0957612d08612edb565b5b828202905092915050565b6000612d1f82612db2565b9150612d2a83612db2565b925082821015612d3d57612d3c612edb565b5b828203905092915050565b6000612d5382612d92565b9050919050565b60008115159050919050565b60007fffffffff0000000000000000000000000000000000000000000000000000000082169050919050565b600073ffffffffffffffffffffffffffffffffffffffff82169050919050565b6000819050919050565b82818337600083830152505050565b60005b83811015612de9578082015181840152602081019050612dce565b83811115612df8576000848401525b50505050565b60006002820490506001821680612e1657607f821691505b60208210811415612e2a57612e29612f39565b5b50919050565b612e3982612f97565b810181811067ffffffffffffffff82111715612e5857612e57612f68565b5b80604052505050565b6000612e6c82612db2565b91507fffffffffffffffffffffffffffffffffffffffffffffffffffffffffffffffff821415612e9f57612e9e612edb565b5b600182019050919050565b6000612eb582612db2565b9150612ec083612db2565b925082612ed057612ecf612f0a565b5b828206905092915050565b7f4e487b7100000000000000000000000000000000000000000000000000000000600052601160045260246000fd5b7f4e487b7100000000000000000000000000000000000000000000000000000000600052601260045260246000fd5b7f4e487b7100000000000000000000000000000000000000000000000000000000600052602260045260246000fd5b7f4e487b7100000000000000000000000000000000000000000000000000000000600052604160045260246000fd5b6000601f19601f8301169050919050565b7f68747470733a2f2f6e6674707265766965772e30786465762e636f6465732f3f60008201527f636f64653d000000000000000000000000000000000000000000000000000000602082015250565b7f4552433732313a207472616e7366657220746f206e6f6e20455243373231526560008201527f63656976657220696d706c656d656e7465720000000000000000000000000000602082015250565b7f4552433732313a20746f6b656e20616c7265616479206d696e74656400000000600082015250565b7f4552433732313a207472616e7366657220746f20746865207a65726f2061646460008201527f7265737300000000000000000000000000000000000000000000000000000000602082015250565b7f4552433732313a20617070726f766520746f2063616c6c657200000000000000600082015250565b7f222c20226465736372697074696f6e223a20224120686967686c79206163636c60008201527f61696d656420636f6c6c656374696f6e206f6620737175617265732e222c202260208201527f696d616765223a2022646174613a696d6167652f7376672b786d6c3b6261736560408201527f36342c0000000000000000000000000000000000000000000000000000000000606082015250565b7f4552433732313a206f70657261746f7220717565727920666f72206e6f6e657860008201527f697374656e7420746f6b656e0000000000000000000000000000000000000000602082015250565b7f3c2f746578743e3c2f7376673e00000000000000000000000000000000000000600082015250565b7f4552433732313a20617070726f76652063616c6c6572206973206e6f74206f7760008201527f6e6572206e6f7220617070726f76656420666f7220616c6c0000000000000000602082015250565b7f4552433732313a2062616c616e636520717565727920666f7220746865207a6560008201527f726f206164647265737300000000000000000000000000000000000000000000602082015250565b7f4552433732313a206f776e657220717565727920666f72206e6f6e657869737460008201527f656e7420746f6b656e0000000000000000000000000000000000000000000000602082015250565b7f45524337323155524953746f726167653a2055524920736574206f66206e6f6e60008201527f6578697374656e7420746f6b656e000000000000000000000000000000000000602082015250565b7f227d000000000000000000000000000000000000000000000000000000000000600082015250565b7f4552433732313a206d696e7420746f20746865207a65726f2061646472657373600082015250565b7f45524337323155524953746f726167653a2055524920717565727920666f722060008201527f6e6f6e6578697374656e7420746f6b656e000000000000000000000000000000602082015250565b7f4552433732313a20617070726f76656420717565727920666f72206e6f6e657860008201527f697374656e7420746f6b656e0000000000000000000000000000000000000000602082015250565b7f4552433732313a207472616e73666572206f6620746f6b656e2074686174206960008201527f73206e6f74206f776e0000000000000000000000000000000000000000000000602082015250565b7f4552433732314d657461646174613a2055524920717565727920666f72206e6f60008201527f6e6578697374656e7420746f6b656e0000000000000000000000000000000000602082015250565b7f7b226e616d65223a202200000000000000000000000000000000000000000000600082015250565b7f4552433732313a20617070726f76616c20746f2063757272656e74206f776e6560008201527f7200000000000000000000000000000000000000000000000000000000000000602082015250565b7f646174613a6170706c69636174696f6e2f6a736f6e3b6261736536342c000000600082015250565b7f4552433732313a207472616e736665722063616c6c6572206973206e6f74206f60008201527f776e6572206e6f7220617070726f766564000000000000000000000000000000602082015250565b6135bd81612d48565b81146135c857600080fd5b50565b6135d481612d5a565b81146135df57600080fd5b50565b6135eb81612d66565b81146135f657600080fd5b50565b61360281612db2565b811461360d57600080fd5b5056fe416e204e465420772f20494420257320686173206265656e206d696e74656420746f2025734142434445464748494a4b4c4d4e4f505152535455565758595a6162636465666768696a6b6c6d6e6f707172737475767778797a303132333435363738392b2fa2646970667358221220044632680850ca209e18beed48a5ca6acc0dd701037412884fd70baa50403ce764736f6c634300080400333c73766720786d6c6e733d27687474703a2f2f7777772e77332e6f72672f323030302f73766727207072657365727665417370656374526174696f3d27784d696e594d696e206d656574272076696577426f783d273020302033353020333530273e3c7374796c653e2e62617365207b2066696c6c3a2077686974653b20666f6e742d66616d696c793a2073657269663b20666f6e742d73697a653a20323470783b207d3c2f7374796c653e3c726563742077696474683d273130302527206865696768743d2731303025272066696c6c3d27626c61636b27202f3e3c7465787420783d273530252720793d273530252720636c6173733d27626173652720646f6d696e616e742d626173656c696e653d276d6964646c652720746578742d616e63686f723d276d6964646c65273e",
    "linkReferences": {},
    "deployedLinkReferences": {}
}